:101A4000234A5F485F33302320202020202020209D
:101A500023424C48454C492445464D3842323123B7
:101A0000100721FFFFFFFFFFFF0DFF02FF55AA0197
:101A1000FFFFFFFFFF03FFFFFF1BFA015004FF0260
:0A1A2000FF7AFF0701FFFF0000FF3F
:101A60002020202020202020202020202020202076
:030000000219FDE5
:02000300611C7E
:02000B00018D65
:02001300A13515
:02001B008073F0
:02002B0041D1C1
:02005B00A144BE
:02007300610921
:100080000406080C10182030406080A0C0054032E3
:10009000C2AFC2A853E6EFC28E856B8BC0D0D2D35D
:1000A000C0E0C0F0C2CAA8CCA9CDD2CAD2AF758A6E
:1000B00000C3E8956CF8E9956DF9C3E913F9E81305
:1000C000F8E5666007C3E913F9E813F8E97025E875
:1000D000956E4020956E501CE582B410177C007B15
:1000E000007A007908900000A86AE5667004C3E809
:1000F00013F801FD900000D2A8D2AA61E7E0FDC389
:100100009CC39840EF98EB33FB0582E0FCC39DC392
:100110009840E198EB33FB0582E0FDC39CC3984017
:10012000D398EB33FB0582E0FCC39DC39840C59890
:10013000EB33FB0582E0FDC39CC39840B798EB33DB
:10014000FB0582E0FCC39DC39840A998EB33FB05F7
:0D01500082E0FDC39CC398409B98EB33FBFD
:10015D000582E0FCC39DC398408D98EB33FB05826F
:10016D002178900000D2A8D2AA61E7E0FDC39CC31C
:10017D009840EF98EA33FA0582E0FCC39DC398409E
:10018D00E198EA33FA0582E0FDC39CC39840D39809
:10019D00EA33FA0582E0FCC39DC39840C598EA3363
:1001AD00FA0582E0FDC39CC39840B798EA33FA057F
:1001BD0082E0FCC39DC39840A998EA33FA0582E01A
:1001CD00FDC39CC398409B98EA33FA0582E0FCC3BB
:1001DD009DC398408D98EA33FA0582EBC46B6A543F
:1001ED00F0F9EAC454F0C3996009900000D2A8D286
:1001FD00AA61E7EBF4C454F0F9EAF4C4540F49FAD8
:0B020D00EBF4C4540FFBC3EAF994604B
:10021800FAEB9400FB5020C3E97B007A0079006078
:1002280016C3135006F9C39552600AE9F55275537F
:1002380000790080020553303A27C3EA94D0F8EBDE
:100248009407F9400BE8FAE9FB203509D235415DFE
:10025800303502C235203902B235C3EA33FAEB33FE
:10026800FBEB2B3B3BF9C3EB13FBEA13FAEA29FA46
:10027800EB3400FB30E3047AFF7BFFE52554036091
:100288001B202A18E55D33F9EB7007C3E99A400291
:10029800E9FAE53CC4332AFAEB3400FBC3EA33C479
:1002A800540FF8EB33C454F048F87005EA6002784C
:1002B80001900000D2A8D2AAE5226002152281D4BA
:1002C800900000D2A8D2AA61E7C0D0C0E0C2CF0592
:1002D80041E5666009E56560057565006104756559
:1002E80001E52360021523C3E554600575550061D7
:1002F80004E5552401F55550037555FFD0E0D0D0DD
:0303080032C2AF4F
:10030B0053E67F7592FA7593FFC22053917FD2AF5C
:10031B0032C0E0E58A303408856B8BF0A3D0E03235
:10032B00D0E0C2AF53E6EFC0D0C0E0C0F0D2D3D222
:10033B00AF5388EFA88AA98CAA40308D010A758A21
:10034B0000758C00754000438810E566700AC3E8A1
:10035B0033F8E933F9EA33FA30331FE8C4540FFAB0
:10036B00E9C454F04AFAC3132AFAC3E833F8E93361
:10037B00F9E82AFAE93406FB61D830320FC3E833C7
:10038B00E933FAE82AFAE93400FB61D8303115E891
:10039B0075F056A4AAF0E975F056A42AFAC5F03404
:1003AB0000FB61D8C3EA13FAE913F9E813F8E8750F
:1003BB00F056A4AAF0E975F056A42AFAC5F0340059
:1003CB00C313FBEA13FAC3EB13FBEA13FAC3EB9465
:1003DB00125009C3EA9434EB940750160522E52218
:0503EB0070021522C3A1
:1003F000E52294325002A128755400A12BE5226019
:100400000215223036067C007D088117AC31AD32F2
:10041000303A04AC33AD34C3EA9CFAEB9DFB92084E
:10042000AE60AF61303A425007203509D235813590
:10043000303502C235303504AE62AF63203902B2C6
:1004400035C3EA33FAEB33FBA208500AEAF424017D
:10045000FAEBF43400FBC3EA9450FAEB9400FB503F
:100460001478007A007B008175A208500878007A21
:10047000007B0081D4E5255403601B202A18E55D2C
:1004800033F9EB7007C3E99A4002E9FAE53CC4335B
:100490002AFAEB3400FBEA8EF0A4F9AAF0EB8EF016
:1004A000A42AFAC5F03400FBC3EB13FDEA13F8C32A
:1004B000ED13FDE813F80FEF146004C3E833F8C33D
:1004C000E933EA33FAEB33FBDFEDEB30E30678FF99
:0804D0007AFF7B078854D2304B
:1004D800E86003755500C3E55BFC955C4002AC5CC5
:1004E800C3EC95545008EC75F008A4FAABF0EAF4A4
:1004F800F8EBF45407F9C3E8943CFAE99400FB508C
:10050800047A007B00885689578A588B5975230AC4
:10051800D0F0D0E0D0D053F7DF43F74043E61032B5
:1005280075230AD0F0D0E0D0D043E61032C2AAD268
:100538008EC2CA85CC6C85CD6DD2CA32C2AFC0D04E
:10054800C0E0D2D3A8F9E55A30E20AE5FA20E2354C
:1005580020E132A165E5FA30E22B20E128C3E55716
:1005680013F8E55613F5FB88FCC3E55913F8E5586D
:1005780013F5E988EA85575A53F7BFD2A8303402F1
:10058800D2AA53E6EF53F7DFD0E0D0D0D2AF32791A
:1005980001801479038010790A800C791E8008790B
:1005A80064800479C880007817E4D5E0FDD8FAD9CA
:1005B800F62278FF20282879A1E76023E548601F04
:1005C80074FF8548F084853FF030290375F005A451
:1005D800F8C5F0600278FFC3E8955D5002A85D8811
:0D05E8005C22C3E54794A0E5489400E55C63
:1005F500500314A1FB046002F55C2275E890220506
:100605005EC3E55E9408405330EDF4A8BDA9BE7500
:100615005E00E9FA79A0E76041EA7006E55F6018D7
:10062500800CC3E8955F600EE55F5005600A148095
:10063500070460FA8002E55FF55FC39569401B75A5
:100645005BC0C394044013755B80C39404400B7571
:100655005B40C394044003755B0022E55B241050A6
:100665000274FFF55B22743279A687F0A4C5F0A267
:10067500F733F55D227547007548F022C2AFC2CA4F
:10068500A8CCA9CDAA4130CF010AD2CAD2AFC3EABC
:1006950013FAE913F9E813F8AB42AC4388428943EE
:1006A500C3E89BF8E99C20280A547FF9302C02E125
:1006B5009FC1F8AD448A44F9EA9D547FFA600678F3
:1006C500FF79FFC1DDAE45AF468B458C46A842A9F3
:1006D50043C3E89EF8E99FF9C3E54813FBE54713D3
:0B06E500FAE82AF547E93BF54850060B
:1006F0007547FF7548FFE145AA47AB48AC47AD4891
:100700007E047F02C3EB9404400D1E1FC3EB9408CC
:1007100040052029021E1FC3ED13FDEC13FCDEF77C
:10072000C3EA9CFAEB9DFBEF6009C3E913F9E813F8
:10073000F8DFF7EA28FAEB39FB8A478B4850067B4B
:10074000FF8B478B48C3EB94025002D22C30280415
:100750007F03E1707892E6FFC3E53D948240110F7C
:10076000C3E53D94A040010FC3EF940640027F050E
:100770007E02E548C4540FF9E548C454F0F8E54753
:10078000C4540F28F8C3E89EFAE99400FB4009C35B
:10079000EA9401EB940050047A01E4FB0207EBAA0F
:1007A00047AB48EBC4FEEAC4540F4EFCC3EA9CFAC4
:1007B000EB9400FBC3E813C313F8EA28FAEB340008
:0707C000FB8A478B48C3EBE5
:1007C70094024002C22C7802EBC4FE7B00EAC454B8
:1007D7000F4EFAC3EA98FA4005C3940150027A0112
:1007E7007892E6FF302002E1EB854E92854F93D257
:1007F7002043E680C3E49AF8E49BF9C3E833F8E9B9
:1008070033F9302C03020880E8FAE9FBD3E913FD3A
:10081700E813FC884E894FC3EF94036038EF20E05C
:100827000CE82CF8E93DF9ECFAEDFB8013E828F821
:10083700E939F9C3E82401F8E93400F97AFF7BFFC5
:10084700C3EF9403400F8A508B51884A894B8C4CD5
:100857008D4D0208B5885089518A4A8B4B8C4C8D37
:100867004D3028127550F07551FF754CF0754DFFDE
:10087700754EF0754FFF0208B5E8FAD3E813FC8808
:100887004EC3EF94036021EF20E007E82CF8ECFA61
:1008970001A0E8282401F87AFFC3EF940340098AEE
:0A08A70050884A8C4C0208B58850B6
:1008B1008A4A8C4C30200201B5753A02D22043E6B7
:1008C10080E5255403602DA847A948C3E913F9E839
:1008D10013F8302804E92440F9C2AF53E67F75913B
:1008E10000C3E498F594E499F595759104D22043F9
:1008F100E680D2AF22D221754900752000302B034A
:100901007520402114D221754900752040302B03F8
:1009110075200078017901202C20E525540360021F
:10092100C2217914E548C313700104F8C39414403B
:10093100027814302804781B791BC3E833F8C3E923
:1009410033F9202010E549600C302803D53A04D250
:100951002221C711BD0549E59B5440B5200221B1B3
:1009610030280908C3E899400118214320210A08C9
:10097100C3E899400221142143C22153E67F7591B6
:1009810000302C117594007595F0759104D22043B7
:10099100E680020914E5487EFFC3334009C33340B2
:1009A10005C3334001FEC3E49E759400F595218B88
:1009B100C3E5399401500221143021022114D802D7
:1009C10021C52143C222C2AF53E67F7591008550F4
:0109D1009491
:1009D200855195759104854A92854B93D22043E6C1
:1009E20080D2AFE525540360072029020539801023
:1009F20030220D202B0A202107158115810213DBDD
:100A02002278003021027801E53D75F007A4F9E56E
:100A1200F028F5F0E9A2F013A2F113A2F213F53DCA
:100A2200C394785003753D78C3E53D953E4009C2B5
:100A320090C291C29275D57F302002413A854C9284
:100A4200854D93D22043E68022203810C2AFC29453
:100A5200D29375D51BD2AF759F23611BC2AFC294CF
:100A6200D29575D536D2AF759F23611B203810C23F
:100A7200AFC29275D52DD293D2AF759F13611BC2AF
:100A8200AFC29075D52DD295D2AF759F03611B2051
:100A92003810C2AFC293D29575D52DD2AF759F03D0
:100AA2008077C2AFC295D29375D52DD2AF759F1301
:100AB2008067203810C2AFC29175D536D295D2AFB9
:100AC200759F238054C2AFC29175D51BD293D2AF0A
:100AD200759F238044203810C2AFC295D29475D539
:100AE20036D2AF759F138031C2AFC293D29475D5FF
:100AF2001BD2AF759F038021203810C2AFC2907500
:100B0200D51BD294D2AF759F03800EC2AFC292752D
:100B1200D536D294D2AF759F13227A147B78801285
:100B22007A107B8C800C7A0D7BB480067A0B7BC8A2
:100B32008000E564D5E001227902E4C294D5E0FDAB
:100B4200D291D5E0FDC291D5E0FDD294D5E0FDE988
:100B520020E002D29030E002D292E564D5E0FDE9D5
:100B620020E002C29030E002C2927496D5E0FDD934
:100B7200C9EAF8D5E0FDD8FBDBB8C29422C290C224
:100B820091C292C293C294C29575D57F2278807623
:100B9200FF0876FF0876FF0876FF0876FF0876FFE3
:100BA20008760D0876FF087602788C76010876FFC3
:100BB2000876FF0876FF0876FF0876FF08760308B6
:100BC20076FF0876FF0876FF08761B0876FA087625
:100BD200010876500876040876FF0876020876FF48
:100BE20008767A0876FF0876070876010876FF0805
:100BF20076FF08760008760022FA75F00CA4ABF0B6
:100C0200EAC333F8740133F9E8C333F8E933F9E896
:090C1200C32BF8E93400F9E8C332
:100C1B0033F8E933F9227888E6C39403D23A5002C9
:100C2B00C23AC238E630E102D238A238923978861D
:100C3B00E6149000809378A6F67886E6F53FC39489
:100C4B00025003753F02789CE6753EFFB4020375B4
:100C5B003EA0B40303753E8278A0E6F860067428C4
:100C6B002409D8FCF5697896E671FB8831893278CE
:100C7B009EE671FB883389347897E671FB8835895A
:100C8B0036717F223036117A007B007CFF7D007E2F
:100C9B000091F58B618A6022303A227896E6FA7BD6
:100CAB0000789EE6FC7D00C3EA33FAEB33FBC3EC22
:100CBB0033FCED33FD7E0A91F58B638A62789630B7
:100CCB003A02789EE6FA7B007897E6FC7D007E0080
:100CDB00303A10C3EA33FAEB33FBC3EC33FCED339E
:100CEB00FD7E0A91F58B618A6022C3EC9EFCED942C
:0D0CFB0000FDC3EC9AFCED9BFDC3EC9423BF
:100D0800ED940050047C237D00C3EC94FFED940126
:100D180040047CFF7D017BFF0B7A000AEA7009C35F
:100D2800EC33FCED33FDA120EC8AF0A4AEF0ED8AA3
:100D3800F0A42E947C40E4EAF460DD22D236918F50
:100D48001205A31205A37A007B007C1012059BE50F
:100D5800542AFA74003BFBDCF37C04C3EB13FBEA74
:100D680013FADCF7FFEB60027FFFC236918F22781F
:100D7800A5E6F95403C2857002D285E9540CC286EF
:100D88007002D286E95430C2877002D287E954C013
:100D98007000227567007568007597DE7597AD75E8
:100DA80081C043FF8075EF0675A900717F7580FFCC
:100DB80075F1F075A4E07580FF75D4FF7590007526
:100DC800F23F75A53F75900075D53F75A60175E38F
:100DD8004075E202717FE4F8F6D8FD718F12141F96
:100DE80078988664753001C2AF1205AB711C120584
:100DF800A371221205A371281205A3B177C2AF759A
:100E0800670075680078FA79FA308407D9FBD8F753
:100E1800021C009121918F78988664717F75A913BF
:030E280075A7109B
:100E2B0075C10075A70075660075E40475881175AA
:100E3B008E0475890975C80475910475D84075D9E8
:100E4B000875F782759E0375960275DA4275DB425B
:100E5B0075A82375E69075B801759B80759D007517
:100E6B00D10C75BCB975BB1075E88075B201120554
:100E7B0097D2AF753C00C2301205ABC231C232C241
:100E8B0033C2347552007553007522001205A7C387
:100E9B00E522940A5002E16BD2317522001205A7AC
:100EAB00C3E522940A5002E16BC231D232752200A3
:100EBB001205A7C3E522940A5002E16B75E4C475D1
:100ECB008851758E017589AA758C00758D00C2A924
:100EDB00D2ABD2AA756B80756A14756E50C232D2C2
:100EEB003475220A1205A7756A10C3E522940A7598
:100EFB0052007553004069758E0C756B00756A282E
:100F0B00756E2875220A1205A7756A20C3E522940F
:100F1B000A7552007553004047758E0C756B8075C2
:100F2B006A14756E1475220A1205A7756A10C3E54B
:100F3B0022940A755200755300402575E404758898
:100F4B0011758E04758909D2A9C2ABC2AAC234D25B
:100F5B00337522001205A7C3E522940A4002C1058E
:100F6B0012059B203003020E05C2AF711C711C7160
:100F7B001CD2AF1205AB203403303A0302102B12F4
:100F8B00059B788CE6C39401500302102BE530C30C
:070F9B009401500302102B2A
:100FA2007567A57568F17F02D236918F1205A7C2C7
:100FB200AFC236918FC3E554947FD2AF406B120516
:100FC20097C2AF712ED2AFDFDFB144C3EF7897F68D
:100FD2001205AB12150C7F0AD236918F1205A7C2E9
:100FE200AFC236918FC3E554947FD2AF50E8120559
:100FF20097C2AF711C12059F711CD2AFDFDA120DBE
:1010020044EF24037896F6F87997E7C394234003D4
:10101200985006E824237897F61205AB9166B13B07
:101022001205A7120C8F020E057567007568001273
:1010320005A7C3E55494014003020F81C2AF120B0E
:101042002E120B2E120B2ED2AF1205AB753000E40E
:10105200F537F5380537E537F4703F0538789AE605
:101062007819146012783214600D787D1460087853
:10107200FA146003753800C3E53898401D120B7FDF
:10108200120597153875370078998664C2AF120B2E
:101092002ED2AF789886641205A712059FE52370B9
:1010A20003020E05C3E5549401500AC3E5529401AC
:1010B20050160210561205A7E5237003020E05759D
:1010C200520075530002126CC3E55294017017C2AC
:0810D200AF120B7F78998664D0
:1010DA00120B1C78988664D2AF1205A7415EC3E54D
:1010EA005294027017C2AF120B7F78998664120B62
:1010FA002278988664D2AF1205A7415EC3E552945E
:10110A00037017C2AF120B7F78998664120B287886
:10111A00988664D2AF1205A7415EC3E55294047063
:10112A0017C2AF120B7F78998664120B2E789886B5
:10113A0064D2AF1205A7415EC3E55294057017C287
:10114A00AF120B7F78998664120B2E78988664D238
:10115A00AF1205A7415EC3E55294077019C3E55360
:10116A009406500201A67401303A0274037888F694
:10117A00C238C239415EC3E55294087019C3E553B7
:10118A009406500201A67402303A0274047888F672
:10119A00D238D239415EC3E55294097017C3E55378
:1011AA009406500201A6303A0BC37888E69402F6F8
:1011BA00C23A415EC3E552940A7016C3E5539406D7
:1011CA00500201A6203A0A7888E62402F6D23A4169
:1011DA005EC3E55294147025C3E553940650020188
:1011EA00A6C2AF901A0B740093D2AF7888F613C2D6
:0711FA0038C2394002D2386F
:101201004002D2398057C3E55294157038C3E55373
:101211009406404FC2AF901A0B740093D2AFF8B846
:1012210001027402B802027401B803027404B80422
:101231000274037888F613C238C2394002D23840AA
:1012410002D2398018C3E552940C70117567A575E7
:1012510068F1C3E5539406400A9166D2AF75520016
:1012610075530075670075680001A6C2AF120B7F48
:10127100E4D2AFE4F55EF524F525F53D755E08127F
:10128100059712060030EDFDA8BDA9BEE97001F871
:10129100885F120604755E08C2AF12066B855D5B3E
:1012A100855D5CD2AF75A71075C13075A70075A9B2
:1012B10003756601303A07C238303502D238D22878
:1012C100753900120AD7120AFA12067A1206811229
:1012D100067A12068112067A120906120A03120A06
:1012E1004B1206811208F6202C031205BA302C038A
:1012F1001205EA120A03120A6E1206811209061277
:101301000A03120A911206811208F6120A03120A3E
:10131100B4120681120906120A03120AD7120681B3
:101321001206001208F6120A03120AFA1206041231
:101331000681302827855D5B79187A0CC3E53999D8
:10134100400EC228D2298A3B855D5B855D5C800C9D
:10135100C3E554940140030212D961E330291F20EF
:051361002B1CE53B140C
:101366007006C229D22A41D9F53B203A07C3E55473
:10137600940140030212D98064753C00203A0F782C
:10138600FA79A4E760027803C3E55598504FE52340
:10139600604B303A17203805203507800F3035026C
:1013A600800A202B07D22B855D5B610978F0302BF4
:1013B60005855D5B7820C3E5489850030212D93055
:1013C6002B1BC22BC238303502D238D229753B12BC
:1013D600855D5B41D9053CE554600261E6753C00DC
:1013E600C2AF120B7F75240075250075A91375A76A
:1013F6001075C10075A700756600D2AF1205A71259
:101406000B7F78A4E66006D293D294D295C3E53CCE
:1014160094044003020E050151901A0D7820919F05
:10142600E520B4550AA3919FE520B4AA028013755E
:1014360067A57568F1120B8F916675670075680070
:10144600801D901A0378807B0A919FA308DBFA908F
:101456001A0F788C7B1A919FA308DBFA901A29221F
:10146600C2AF91E291BF901A00741091A4A37407C1
:1014760091A4A3742191A4901A0378807B0A91A366
:10148600A308DBFA901A0F788C7B1A91A3A308DBCA
:10149600FA91F591D3901A2922E493F622E6438F26
:1014A60001538FFDFFC3E583941C400122EF85673E
:1014B600B78568B7F0538FFE22438F02438F0185AD
:1014C60067B78568B7901A0DF0538FFC22901A0DF6
:1014D600745591A4901A0E74AA91A4227A3079D0E8
:1014E6007820901A40919FE520F709A3DAF7227A2F
:1014F6003079D0901A40E791A409A3DAF9227C0545
:101506001205ABDCFB22C2AF120B1C120B22120B14
:1015160028120B2E12059F120B1C120B22120B28DF
:10152600120B2E12059F120B1C120B22120B2812E5
:101536000B2ED2AF22C2AF120B2E120B28120B2289
:10154600120B1C12059F120B2E120B28120B2212C5
:101556000B1C12059F120B2E120B28120B22120BBC
:041566001CD2AF22C2
:101C0000C2AFC2D37597DE7597AD7581C075A90057
:101C100043FF80752438752503B1DB7529A5752A26
:101C2000F143F11053A4EFD28475D4FF75E3407DE6
:101C3000FA780379067C01752200752300901DE86F
:101C40007B067524E67525FF3084028148208408D0
:101C5000D8FBD9F9DCF781BA308408D8FBD9F9DC94
:101C6000F781BAB19BE493A3C39A6004DDC381BA40
:101C7000DBDBB18D600281317B08E493FAA3B16EA6
:101C8000DBF87A30B16E752200752300B18DEAFC65
:101C9000EBFDC3ED94FE400EB18D8A278B28ED300D
:101CA000E0048A828B83B18D7AC270D8C3ED94FE32
:101CB000601950CEBD0029EC600F7520007521FF22
:101CC000752900752A000200008100A827A92808AC
:101CD00009D804D90281DDB191EAF281D10D81A642
:101CE000C3ED94035051EDA2E092007AC5C3E582A2
:101CF0009400E583941C508C200010438F02438F86
:101D0000018529B7852AB7F0300027A827A9280818
:101D100009438F01538FFDD804D902A132C3E58353
:101D2000941C4003A3A117E28529B7852AB7F0A325
:101D3000A117538FFC81827AC1BD030CE493A3FAEF
:101D4000B152DCF8B14A81828184AA22AB23B16E00
:101D5000EBFAEA6222752608C3E52313F523E52290
:101D600013F52250066323A0632201D526EAB1DBD6
:101D7000B1DB75260AEAF4200102D284300102C2E6
:101D800084B1DBC3134002C201D526EB22B191EA34
:101D9000FB208402A191308402A196752608AE240E
:101DA000AF25C3EF13FFEE13FEB1DFB1DBC3EA13C0
:101DB0003084024480FA30E703632201C3E5231331
:101DC000F523E52213F52250066323A0632201D5F3
:101DD00026D9E52265236523F52222AE24AF250E00
:101DE0000FDEFEDFFCD20122424C48656C693437BD
:061DF0003164E8B20601B7
:0319FD00020D9B3D
:00000001FF
